:100000000C942A000C94360B0C94690B0C9447004A
:100010000C9447000C9447000C94E4090C9447009E
:100020000C9447000C9447000C94B1090C947E0981
:100030000C9447000C9447000C9447000C94470024
:100040000C9447000C9447000C9447000C94470014
:100050000C94470011241FBECFE5D8E0DEBFCDBF12
:1000600011E0A0E6B0E0E0E7F8E202C005900D92F2
:10007000A839B107D9F711E0A8E9B1E001C01D9294
:10008000A73AB107E1F70E9441130C9436140C947F
:100090000000EF92FF920F931F937B018C0120E0F1
:1000A00030E040E05FE40E94490388238CF0C801FF
:1000B000B70120E030E040E05FE40E94C1010E940F
:1000C00007049B01AC01205030404040504806C01E
:1000D000C801B7010E9407049B01AC01B901CA0124
:1000E0001F910F91FF90EF900895A0E0B0E0EBE733
:1000F000F0E00C94BA13DC012B01FA019C919230D0
:1001000008F439C1EB018881823008F433C194309E
:1001100069F4843009F02FC111969C91119789815F
:10012000981709F428C1AFE7B0E025C1843009F47D
:1001300021C18230A9F4923009F01DC19A01AD01AC
:1001400088E0EA010990AE01E90109929E0181501F
:10015000C1F7E201898111969C918923818308C1AD
:10016000923009F407C112962D903C901397EB0141
:100170008A819B811496AD90BD90CD90DC901797AD
:10018000EC80FD800E811F819101281B390BB90184
:1001900037FF04C066277727621B730B6032710537
:1001A0000CF061C0121613066CF537014801062EDB
:1001B00004C096948794779467940A94D2F721E0C8
:1001C00030E040E050E004C0220F331F441F551FB1
:1001D0006A95D2F721503040404050402E213F21B7
:1001E00040235123211531054105510521F021E01E
:1001F00030E040E050E079018A01E628F72808293C
:1002000019293CC0232BD1F1260E371E350146019A
:10021000062E04C096948794779467940A94D2F734
:1002200021E030E040E050E004C0220F331F441FC3
:10023000551F6A95D2F721503040404050402A2146
:100240003B214C215D21211531054105510521F04E
:1002500021E030E040E050E059016A01A628B728CB
:10026000C828D9280BC0821593052CF01C01AA249C
:10027000BB24650103C0EE24FF24870111969C91E5
:10028000D20111968C91981709F445C0992339F041
:10029000A80197012A193B094C095D0906C0A6016E
:1002A00095012E193F09400B510B57FD08C01182D3
:1002B0003382228224833583468357831DC081E0A5
:1002C00081833382228288279927DC01821B930B4A
:1002D000A40BB50B84839583A683B7830DC0220F2F
:1002E000331F441F551F24833583468357838281E0
:1002F000938101979383828324813581468157813D
:10030000DA01C9010197A109B1098F5F9F4FAF4F72
:10031000BF4328F30BC0918333822282EA0CFB1C7B
:100320000C1D1D1DE482F5820683178383E0808304
:10033000248135814681578157FF1AC0C901AA27F8
:1003400097FDA095BA2F81709070A070B0705695EF
:10035000479537952795822B932BA42BB52B848318
:100360009583A683B7838281938101969383828349
:10037000DF0101C0D201CD01CDB7DEB7E2E10C94BF
:10038000D613A0E2B0E0E7ECF1E00C94C613698369
:100390007A838B839C832D833E834F835887E9E048
:1003A000EE2EF12CEC0EFD1ECE010196B7010E943F
:1003B0007F058E010F5E1F4FCE010596B8010E948A
:1003C0007F058A8991E089278A8BC701B801AE0130
:1003D000475E5F4F0E9475000E94AA04A096E6E067
:1003E0000C94E213A0E2B0E0E8EFF1E00C94C61345
:1003F00069837A838B839C832D833E834F835887C5
:10040000F9E0EF2EF12CEC0EFD1ECE010196B701A6
:100410000E947F058E010F5E1F4FCE010596B80129
:100420000E947F05C701B801AE01475E5F4F0E9481
:1004300075000E94AA04A096E6E00C94E213A0E2E4
:10044000B0E0E5E2F2E00C94BA1369837A838B831F
:100450009C832D833E834F835887CE010196BE0136
:10046000675F7F4F0E947F05CE010596BE016F5EDC
:100470007F4F0E947F059985923088F0898982306C
:10048000C8F0943019F4823051F404C0843029F457
:10049000923081F48FE790E0C6C0923049F420E0BA
:1004A0009A858A89981321E02A87CE010996BBC0D4
:1004B000823049F420E09A858A89981321E02A8BBA
:1004C000CE014196B0C02D843E844F8458886D88FB
:1004D0007E888F88988CEE24FF248701AA24BB2471
:1004E000650140E050E060E070E0E0E0F0E0C10174
:1004F00081709070892BE9F0E60CF71C081D191D1E
:100500009A01AB012A0D3B1D4C1D5D1D80E090E062
:10051000A0E0B0E0E614F7040805190520F481E036
:1005200090E0A0E0B0E0BA01A901480F591F6A1F8E
:100530007B1FAA0CBB1CCC1CDD1C97FE08C081E0F5
:1005400090E0A0E0B0E0A82AB92ACA2ADB2A3196B6
:10055000E032F10549F0660C771C881C991C569412
:10056000479437942794C3CFFA85EA892B893C892D
:100570008B859C85280F391F2E5F3F4F17C0CA01FE
:1005800081709070892B61F016950795F794E79428
:1005900080E090E0A0E0B0E8E82AF92A0A2B1B2BC3
:1005A00076956795579547952F5F3F4F77FDE7CF36
:1005B0000CC0440F551F661F771F17FD4160EE0CDE
:1005C000FF1C001F111F21503040403090E05907A0
:1005D00090E0690790E4790760F32B8F3C8FDB0193
:1005E000CA018F779070A070B07080349105A1051A
:1005F000B10561F447FD0AC0E114F10401051105DC
:1006000029F0405C5F4F6F4F7F4F40781A8EFE1786
:1006100011F081E08A8F4D8F5E8F6F8F78A383E01A
:10062000898FCE0149960E94AA04A096E2E10C941B
:10063000D613A8E1B0E0EFE1F3E00C94C6136983B0
:100640007A838B839C832D833E834F83588789E0F5
:10065000E82EF12CEC0EFD1ECE010196B7010E9492
:100660007F058E010F5E1F4FCE010596B8010E94D7
:100670007F058985823040F08989823028F0C70162
:10068000B8010E94F70501C08FEF6896E6E00C9470
:10069000E213A8E1B0E0EFE4F3E00C94C613698341
:1006A0007A838B839C832D833E834F83588789E095
:1006B000E82EF12CEC0EFD1ECE010196B7010E9432
:1006C0007F058E010F5E1F4FCE010596B8010E9477
:1006D0007F058985823040F08989823028F0C70102
:1006E000B8010E94F70501C08FEF6896E6E00C9410
:1006F000E213A8E1B0E0EFE7F3E00C94C6136983DE
:100700007A838B839C832D833E834F83588789E034
:10071000E82EF12CEC0EFD1ECE010196B7010E94D1
:100720007F058E010F5E1F4FCE010596B8010E9416
:100730007F058985823040F08989823028F0C701A1
:10074000B8010E94F70501C081E06896E6E00C94CC
:10075000E213A8E0B0E0EFEAF3E00C94C3139B01CE
:10076000AC0183E08983DA01C9018827B7FD83954D
:100770009927AA27BB27B82E211531054105510518
:1007800019F482E089833AC08823A9F0203080E000
:10079000380780E0480780E8580729F460E070E0F7
:1007A00080E09FEC30C0EE24FF248701E21AF30AB8
:1007B000040B150B02C079018A018EE1C82ED12CE1
:1007C000DC82CB82ED82FE820F831887C801B701DD
:1007D0000E945B0401971816190684F4082E04C0C1
:1007E000EE0CFF1C001F111F0A94D2F7ED82FE824F
:1007F0000F831887C81AD90ADC82CB82BA82CE014D
:1008000001960E94AA042896E9E00C94DF13ACE05C
:10081000B0E0EDE0F4E00C94CA1369837A838B8333
:100820009C83CE010196BE016B5F7F4F0E947F05C6
:100830008D81823061F1823050F1843021F48E81DB
:10084000882351F12EC02F81388537FD20C06E815D
:100850002F3131051CF06623F9F023C08EE190E0C2
:10086000821B930B29853A854B855C8504C0569580
:100870004795379527958A95D2F76623B1F050951D
:100880004095309521953F4F4F4F5F4F0EC020E070
:1008900030E040E050E009C02FEF3FEF4FEF5FE75F
:1008A00004C020E030E040E050E8B901CA012C96D5
:1008B000E2E00C94E613EF92FF920F931F937B01FB
:1008C0008C0180E0E81680E0F80681E0080780E00F
:1008D000180788F48FEFE816F1040105110531F0CF
:1008E00028F088E090E0A0E0B0E017C080E090E061
:1008F000A0E0B0E012C080E0E81680E0F80680E0FA
:10090000080781E0180728F088E190E0A0E0B0E057
:1009100004C080E190E0A0E0B0E020E230E040E000
:1009200050E0281B390B4A0B5B0B04C0169507954A
:10093000F794E7948A95D2F7F701E957FF4F808142
:10094000281B310941095109C9011F910F91FF90DD
:10095000EF900895DF92EF92FF920F931F93FC01A7
:10096000E480F58006811781D1808081823048F44F
:1009700080E090E0A0E1B0E0E82AF92A0A2B1B2BE6
:10098000A5C0843009F49FC0823021F4EE24FF24F6
:10099000870105C0E114F1040105110519F4E0E037
:1009A000F0E096C0628173819FEF623879070CF0A6
:1009B0005BC022E83FEF261B370B2A3131052CF0B4
:1009C00020E030E040E050E02AC0B801A701022E4C
:1009D00004C076956795579547950A94D2F781E0BC
:1009E00090E0A0E0B0E004C0880F991FAA1FBB1FD1
:1009F0002A95D2F70197A109B1098E219F21A02341
:100A0000B1230097A105B10521F081E090E0A0E0BD
:100A1000B0E09A01AB01282B392B4A2B5B2BDA0172
:100A2000C9018F779070A070B07080349105A105D6
:100A3000B10539F427FF09C0205C3F4F4F4F5F4F8E
:100A400004C0215C3F4F4F4F5F4FE0E0F0E02030AB
:100A5000A0E03A07A0E04A07A0E45A0710F0E1E05E
:100A6000F0E079018A0127C06038710564F5FB0167
:100A7000E158FF4FD801C7018F779070A070B07018
:100A800080349105A105B10539F4E7FE0DC080E47D
:100A900090E0A0E0B0E004C08FE390E0A0E0B0E020
:100AA000E80EF91E0A1F1B1F17FF05C016950795B4
:100AB000F794E794319687E016950795F794E794B5
:100AC0008A95D1F705C0EE24FF248701EFEFF0E00F
:100AD0006E2F679566276795902F9F77D794DD24B3
:100AE000D7948E2F8695492F462B582F5D29B70115
:100AF000CA011F910F91FF90EF90DF900895FC01C4
:100B0000DB01408151812281622F6F7770E0221FCB
:100B10002227221F9381892F880F822B282F30E0D4
:100B2000991F9927991F11969C93119721153105AB
:100B3000A9F5411551056105710511F482E037C031
:100B400082E89FEF13969C938E9312979A01AB01C4
:100B500067E0220F331F441F551F6A95D1F783E0CA
:100B60008C930DC0220F331F441F551F12968D9179
:100B70009C911397019713969C938E931297203014
:100B800080E0380780E0480780E4580758F314965F
:100B90002D933D934D935C93179708952F3F310507
:100BA00079F4411551056105710519F484E08C93C0
:100BB000089564FF03C081E08C9312C01C9210C0A2
:100BC0002F57304013963C932E93129783E08C93CB
:100BD00087E0440F551F661F771F8A95D1F7706411
:100BE00014964D935D936D937C93179708951F937F
:100BF000DC01FB019C91923008F447C08081823077
:100C000008F443C0943051F411961C91843099F546
:100C10008181682F70E0611B71093FC0843021F031
:100C2000923031F48230B9F18181882389F12DC06D
:100C300011961C9111978230F1F081811817D9F427
:100C400012962D913C91139782819381821793077D
:100C500094F028173907BCF014968D919D910D9052
:100C6000BC91A02D248135814681578128173907F1
:100C70004A075B0718F4112341F00AC08217930753
:100C8000A407B50740F4112319F061E070E005C036
:100C90006FEF7FEF02C060E070E0CB011F9108951D
:100CA000DF93CF93CDB7DEB7A1E4B0E0E1E4F0E0AD
:100CB000808188608C93CF91DF910895DF93CF93EB
:100CC000CDB7DEB7A1E4B0E0E1E4F0E08081886177
:100CD0008C93A1E4B0E0E1E4F0E08081877F8C9325
:100CE000CF91DF910895DF93CF9300D0CDB7DEB7DA
:100CF0008A83198239C08A819AE0692F0E94AE13D3
:100D0000892F8130A1F4A1E4B0E0E1E4F0E080813A
:100D1000482F8981282F30E081E090E0022E02C028
:100D2000880F991F0A94E2F7842B8C9314C0A1E4D6
:100D3000B0E0E1E4F0E08081482F8981282F30E0A5
:100D400081E090E0022E02C0880F991F0A94E2F71A
:100D5000809584238C938A819AE0692F0E94AE1338
:100D60008A8389818F5F89838981833020F20F9004
:100D70000F90CF91DF910895DF93CF9300D000D0F3
:100D80000F92CDB7DEB78A836B83A3E5B0E0E3E5CE
:100D9000F0E080818F7B8C938A81282F30E03D8327
:100DA0002C838C819D81009731F02C813D812130F5
:100DB0003105C9F030C0A3E5B0E0E3E5F0E08081A3
:100DC000877F8C93A9E5B0E0E9E5F0E08081816060
:100DD0008C93A9E5B0E0E9E5F0E080818D7F8C930C
:100DE00010929E0118C0A3E5B0E0E3E5F0E0808139
:100DF00088608C93A9E5B0E0E9E5F0E0808182604D
:100E00008C93A9E5B0E0E9E5F0E080818E7F8C93DA
:100E100081E080939E01198239C08B819AE0692F0D
:100E20000E94AE13892F8130A1F4A3E5B0E0E3E581
:100E3000F0E08081482F8981282F30E081E090E028
:100E4000022E02C0880F991F0A94E2F7842B8C931C
:100E500014C0A3E5B0E0E3E5F0E08081482F89818C
:100E6000282F30E081E090E0022E02C0880F991F09
:100E70000A94E2F7809584238C938B819AE0692F02
:100E80000E94AE138B8389818F5F89838981833030
:100E900020F20F900F900F900F900F90CF91DF9155
:100EA0000895DF93CF9300D00F92CDB7DEB789833B
:100EB00080919E01282F30E03B832A838A819B8189
:100EC000009731F02A813B812130310531F009C092
:100ED000E2E5F0E08981808304C0ECE5F0E08981FF
:100EE00080830F900F900F90CF91DF910895DF9343
:100EF000CF9300D0CDB7DEB79A83898389819A8159
:100F000090939901809398010F900F90CF91DF916A
:100F10000895DF93CF9300D0CDB7DEB79A8389834E
:100F200089819A8190939B0180939A010F900F90F1
:100F3000CF91DF910895DF93CF93CDB7DEB72A9796
:100F40000FB6F894DEBF0FBECDBF6F837887898759
:100F50009A871B821C821D821E8219C01A821982E6
:100F600005C089819A8101969A83898389819A81B2
:100F700021E08E359207A8F38B819C81AD81BE81E3
:100F80000196A11DB11D8B839C83AD83BE832B81F4
:100F90003C814D815E818F819885A985BA8528170E
:100FA00039074A075B07D0F22A960FB6F894DEBFDE
:100FB0000FBECDBFCF91DF910895DF93CF93CDB713
:100FC000DEB7A5E4B0E0E5E4F0E0808180648C93D6
:100FD000A5E4B0E0E5E4F0E0808188608C93A5E4CE
:100FE000B0E0E5E4F0E080818B7F8C93A5E4B0E095
:100FF000E5E4F0E0808182608C93A5E4B0E0E5E474
:10100000F0E080818E7F8C93A5E4B0E0E5E4F0E031
:10101000808180628C93A5E4B0E0E5E4F0E080811B
:101020008F7E8C93CF91DF910895DF93CF930F92B2
:10103000CDB7DEB78983E3E4F0E0898180830F9048
:10104000CF91DF910895DF93CF9300D000D00F921E
:10105000CDB7DEB78A836B83198239C08B819AE062
:10106000692F0E94AE13892F8130A1F4AEE4B0E065
:10107000EEE4F0E08081482F8981282F30E081E084
:1010800090E0022E02C0880F991F0A94E2F7842B89
:101090008C9314C0AEE4B0E0EEE4F0E08081482F21
:1010A0008981282F30E081E090E0022E02C0880F75
:1010B000991F0A94E2F7809584238C938B819AE0A0
:1010C000692F0E94AE138B8389818F5F8983898109
:1010D000833020F28A81282F30E03D832C838C815D
:1010E0009D81009731F02C813D8122303105F1F056
:1010F00047C0AFE4B0E0EFE4F0E080818E7F8C93F6
:10110000AFE4B0E0EFE4F0E080818D7F8C93AEE45B
:10111000B0E0EEE4F0E08081877F8C93AEE4B0E055
:10112000EEE4F0E080818F7E8C932AC0AFE4B0E0E3
:10113000EFE4F0E080818F7B8C93AFE4B0E0EFE4EC
:10114000F0E0808180688C93AFE4B0E0EFE4F0E001
:1011500080818E7F8C93AFE4B0E0EFE4F0E080819B
:1011600082608C93AEE4B0E0EEE4F0E080818860D1
:101170008C93AEE4B0E0EEE4F0E0808180618C938B
:101180000F900F900F900F900F90CF91DF910895D7
:10119000DF93CF9300D0CDB7DEB79A838983E6E49F
:1011A000F0E089819A81918380830F900F90CF9195
:1011B000DF910895DF93CF9300D0CDB7DEB79A8348
:1011C0008983EAE4F0E089819A81918380830F909A
:1011D0000F90CF91DF910895DF93CF9300D0CDB7DB
:1011E000DEB79A838983ECE4F0E089819A81918368
:1011F00080830F900F90CF91DF910895DF93CF936D
:10120000CDB7DEB7ECE4F0E080819181CF91DF9142
:101210000895DF93CF9300D00F92CDB7DEB78983C7
:101220008981282F30E03B832A838A819B81843007
:10123000910531F02A813B812530310549F00FC0FD
:10124000AEE4B0E0EEE4F0E0808180648C9307C00F
:10125000AEE4B0E0EEE4F0E080818F7B8C930F9001
:101260000F900F90CF91DF910895DF93CF9300D02F
:101270000F92CDB7DEB789838981282F30E03B8379
:101280002A838A819B818230910531F02A813B81BA
:101290002330310549F00FC0A9E5B0E0E9E5F0E001
:1012A000808180628C9307C0A9E5B0E0E9E5F0E0B9
:1012B00080818F7D8C930F900F900F90CF91DF9155
:1012C0000895DF93CF9300D0CDB7DEB79A8389839B
:1012D00089819A8190939D0180939C010F900F903A
:1012E000CF91DF910895DF93CF93CDB7DEB7E6E4DA
:1012F000F0E080819181CF91DF9108951F920F924C
:101300000FB60F9211242F933F934F935F936F93D8
:101310007F938F939F93AF93BF93EF93FF93DF934D
:10132000CF93CDB7DEB78091980190919901009746
:1013300029F0E0919801F09199010995CF91DF9101
:10134000FF91EF91BF91AF919F918F917F916F919D
:101350005F914F913F912F910F900FBE0F901F9073
:1013600018951F920F920FB60F9211242F933F934F
:101370004F935F936F937F938F939F93AF93BF939D
:10138000EF93FF93DF93CF93CDB7DEB780919A01B0
:1013900090919B01009729F0E0919A01F0919B01B7
:1013A0000995CF91DF91FF91EF91BF91AF919F91FF
:1013B0008F917F916F915F914F913F912F910F90FE
:1013C0000FBE0F901F9018951F920F920FB60F929D
:1013D00011242F933F934F935F936F937F938F933A
:1013E0009F93AF93BF93EF93FF93DF93CF93CDB7CB
:1013F000DEB780919C0190919D01009729F0E091CA
:101400009C01F0919D010995CF91DF91FF91EF91A2
:10141000BF91AF919F918F917F916F915F914F910C
:101420003F912F910F900FBE0F901F901895DF9353
:10143000CF93CDB7DEB7AFE5B0E0EFE5F0E0808168
:1014400080688C93CF91DF910895DF93CF93CDB7D0
:10145000DEB7AFE5B0E0EFE5F0E080818F778C9309
:10146000CF91DF910895DF93CF93CDB7DEB7289763
:101470000FB6F894DEBF0FBECDBF89836A83898122
:10148000282F30E038872F838F819885009739F097
:101490002F8138852130310509F449C08FC08A81F8
:1014A000282F30E03E832D838D819E8183309105EE
:1014B000C9F02D813E812430310519F18D819E8145
:1014C0008230910561F5A5E5B0E0E5E5F0E08081C9
:1014D00081608C93A5E5B0E0E5E5F0E08081826075
:1014E0008C931DC0A5E5B0E0E5E5F0E080818E7F3E
:1014F0008C93A5E5B0E0E5E5F0E0808182608C9317
:101500000EC0A5E5B0E0E5E5F0E0808181608C9358
:10151000A5E5B0E0E5E5F0E080818D7F8C93ABE55B
:10152000B0E0EBE5F0E0808180648C9347C08A8175
:10153000282F30E03C832B838B819C818330910565
:10154000C9F02B813C812430310519F18B819C81BC
:101550008230910561F5A5E5B0E0E5E5F0E0808138
:1015600084608C93A5E5B0E0E5E5F0E080818860DB
:101570008C931DC0A5E5B0E0E5E5F0E080818B7FB0
:101580008C93A5E5B0E0E5E5F0E0808188608C9380
:101590000EC0A5E5B0E0E5E5F0E0808184608C93C5
:1015A000A5E5B0E0E5E5F0E08081877F8C93ABE5D1
:1015B000B0E0EBE5F0E0808180688C9328960FB670
:1015C000F894DEBF0FBECDBFCF91DF910895DF93BA
:1015D000CF9300D00F92CDB7DEB789838981282FB2
:1015E00030E03B832A838A819B81009731F02A81F6
:1015F0003B812130310549F00FC0ABE5B0E0EBE5B0
:10160000F0E080818F7B8C9307C0ABE5B0E0EBE529
:10161000F0E080818F778C930F900F900F90CF9197
:10162000DF910895DF93CF9300D0CDB7DEB79A83D3
:10163000898389819A819093A00180939F010F9063
:101640000F90CF91DF910895DF93CF9300D0CDB766
:10165000DEB79A83898389819A819093A2018093CE
:10166000A1010F900F90CF91DF9108951F920F92DB
:101670000FB60F9211242F933F934F935F936F9365
:101680007F938F939F93AF93BF93EF93FF93DF93DA
:10169000CF93CDB7DEB780919F019091A0010097C5
:1016A00029F0E0919F01F091A0010995CF91DF9180
:1016B000FF91EF91BF91AF919F918F917F916F912A
:1016C0005F914F913F912F910F900FBE0F901F9000
:1016D00018951F920F920FB60F9211242F933F93DC
:1016E0004F935F936F937F938F939F93AF93BF932A
:1016F000EF93FF93DF93CF93CDB7DEB78091A10136
:101700009091A201009729F0E091A101F091A2012E
:101710000995CF91DF91FF91EF91BF91AF919F918B
:101720008F917F916F915F914F913F912F910F908A
:101730000FBE0F901F901895DF93CF93CDB7DEB7F4
:101740002D970FB6F894DEBF0FBECDBF89836A8395
:101750004B838981282F30E03D872C878C859D85A0
:101760008130910509F44FC02C853D85223031052B
:101770002CF48C859D85009771F0EBC02C853D8500
:101780002230310509F477C08C859D858330910521
:1017900009F4A9C0DEC08B81282F30E03B872A875F
:1017A0008A859B850097D1F02A853B8521303105BC
:1017B00009F0CFC0AAE3B0E0EAE3F0E08081482F6F
:1017C0008A81282F30E081E090E0022E02C0880F4D
:1017D000991F0A94E2F7842B8C93BBC0AAE3B0E074
:1017E000EAE3F0E08081482F8A81282F30E081E011
:1017F00090E0022E02C0880F991F0A94E2F78095AC
:1018000084238C93A6C08B81282F30E039872887CA
:10181000888599850097D1F0288539852130310553
:1018200009F097C0A7E3B0E0E7E3F0E08081482F3C
:101830008A81282F30E081E090E0022E02C0880FDC
:10184000991F0A94E2F7842B8C9383C0A7E3B0E03E
:10185000E7E3F0E08081482F8A81282F30E081E0A3
:1018600090E0022E02C0880F991F0A94E2F780953B
:1018700084238C936EC08B81282F30E03F832E838E
:101880008E819F810097D1F02E813F8121303105DB
:1018900009F05FC0A4E3B0E0E4E3F0E08081482F0A
:1018A0008A81282F30E081E090E0022E02C0880F6C
:1018B000991F0A94E2F7842B8C934BC0A4E3B0E009
:1018C000E4E3F0E08081482F8A81282F30E081E036
:1018D00090E0022E02C0880F991F0A94E2F78095CB
:1018E00084238C9336C08B81282F30E03D832C835A
:1018F0008C819D810097C9F02C813D81213031057B
:1019000041F5A1E3B0E0E1E3F0E08081482F8A8176
:10191000282F30E081E090E0022E02C0880F991F4E
:101920000A94E2F7842B8C9314C0A1E3B0E0E1E3C6
:10193000F0E08081482F8A81282F30E081E090E01C
:10194000022E02C0880F991F0A94E2F78095842323
:101950008C932D960FB6F894DEBF0FBECDBFCF91FE
:10196000DF910895DF93CF93CDB7DEB72D970FB6F4
:10197000F894DEBF0FBECDBF89836A834B83898114
:10198000282F30E03D872C878C859D8581309105FF
:1019900009F44FC02C853D85223031052CF48C850F
:1019A0009D85009771F0EBC02C853D852230310577
:1019B00009F477C08C859D858330910509F4A9C011
:1019C000DEC08B81282F30E03B872A878A859B8564
:1019D0000097D1F02A853B852130310509F0CFC031
:1019E000ABE3B0E0EBE3F0E08081482F8A81282F61
:1019F00030E081E090E0022E02C0880F991F0A9427
:101A0000E2F7842B8C93BBC0ABE3B0E0EBE3F0E0F8
:101A10008081482F8A81282F30E081E090E0022EDB
:101A200002C0880F991F0A94E2F7809584238C9353
:101A3000A6C08B81282F30E0398728878885998533
:101A40000097D1F0288539852130310509F097C0FC
:101A5000A8E3B0E0E8E3F0E08081482F8A81282FF6
:101A600030E081E090E0022E02C0880F991F0A94B6
:101A7000E2F7842B8C9383C0A8E3B0E0E8E3F0E0C6
:101A80008081482F8A81282F30E081E090E0022E6B
:101A900002C0880F991F0A94E2F7809584238C93E3
:101AA0006EC08B81282F30E03F832E838E819F81F3
:101AB0000097D1F02E813F812130310509F05FC0C0
:101AC000A5E3B0E0E5E3F0E08081482F8A81282F8C
:101AD00030E081E090E0022E02C0880F991F0A9446
:101AE000E2F7842B8C934BC0A5E3B0E0E5E3F0E094
:101AF0008081482F8A81282F30E081E090E0022EFB
:101B000002C0880F991F0A94E2F7809584238C9372
:101B100036C08B81282F30E03D832C838C819D81C2
:101B20000097C9F02C813D812130310541F5A2E3B8
:101B3000B0E0E2E3F0E08081482F8A81282F30E096
:101B400081E090E0022E02C0880F991F0A94E2F70C
:101B5000842B8C9314C0A2E3B0E0E2E3F0E0808138
:101B6000482F8A81282F30E081E090E0022E02C0C9
:101B7000880F991F0A94E2F7809584238C932D9601
:101B80000FB6F894DEBF0FBECDBFCF91DF910895A1
:101B9000DF93CF9300D000D00F92CDB7DEB78A830A
:101BA0006B838A81282F30E03D832C834C815D81BB
:101BB0004130510541F18C819D818230910534F491
:101BC0002C813D812115310561F052C04C815D8130
:101BD0004230510551F18C819D8183309105B9F1DD
:101BE00047C0E9E3F0E08081282F30E08B81882F27
:101BF00090E0A90102C0559547958A95E2F7CA0180
:101C00008170898335C0E6E3F0E08081282F30E0E1
:101C10008B81882F90E0A90102C0559547958A9540
:101C2000E2F7CA018170898323C0E3E3F0E0808199
:101C3000282F30E08B81882F90E0A90102C05595B4
:101C400047958A95E2F7CA018170898311C0E0E364
:101C5000F0E08081282F30E08B81882F90E0A9016F
:101C600002C0559547958A95E2F7CA01817089832C
:101C700089810F900F900F900F900F90CF91DF916F
:101C80000895DF93CF9300D000D000D0CDB7DEB75A
:101C90008B836C831A8219828B81282F30E03E83DC
:101CA0002D838D819E8181309105D1F02D813E81E2
:101CB000223031052CF48D819E81009761F01EC089
:101CC0002D813E812230310581F08D819E818330CE
:101CD000910581F013C08AE390E09A8389830EC056
:101CE00087E390E09A83898309C084E390E09A8334
:101CF000898304C081E390E09A838983E981FA8132
:101D00008C81808326960FB6F894DEBF0FBECDBFC0
:101D1000CF91DF910895DF93CF9300D000D000D012
:101D2000CDB7DEB78B836C831A8219828B81282F03
:101D300030E03E832D838D819E8181309105D1F0ED
:101D40002D813E81223031052CF48D819E810097BA
:101D500061F01EC02D813E812230310581F08D81E0
:101D60009E818330910581F013C08BE390E09A83CC
:101D700089830EC088E390E09A83898309C085E354
:101D800090E09A83898304C082E390E09A838983F8
:101D9000E981FA818C81808326960FB6F894DEBFA4
:101DA0000FBECDBFCF91DF910895DF93CF93CDB715
:101DB000DEB7A7E2B0E0E7E2F0E0808180648C93D8
:101DC000A7E2B0E0E7E2F0E080818F778C93A7E2B2
:101DD000B0E0E7E2F0E0808180628C93A6E2B0E0C0
:101DE000E6E2F0E080818E7F8C93A6E2B0E0E6E24E
:101DF000F0E0808182608C93A6E2B0E0E6E2F0E061
:101E0000808184608C93A6E2B0E0E6E2F0E080811D
:101E100080688C93CF91DF910895DF93CF930F92D9
:101E2000CDB7DEB78983A7E2B0E0E7E2F0E08081DA
:101E3000807E8C93A7E2B0E0E7E2F0E090818981B8
:101E4000892B8C93A6E2B0E0E6E2F0E0808180642A
:101E50008C93E6E2F0E0808182958F70882F90E08D
:101E6000817090700097A9F3A6E2B0E0E6E2F0E09E
:101E7000808180618C93E5E2F0E080810F90CF91CA
:101E8000DF910895DF93CF93CDB7DEB782E06AE0AC
:101E90000E94230880E29EE40E94C808CF91DF914F
:101EA0000895DF93CF9300D000D00F92CDB7DEB767
:101EB0008D838D81853B10F084EB8D838D81882F00
:101EC00090E0AA2797FDA095BA2FBC01CD010E94F2
:101ED000A903DC01CB01BC01CD0121E63BE046EBCF
:101EE0005BE30E941F02DC01CB01BC01CD0120E0BD
:101EF00030E040E85FE30E94F201DC01CB0189831E
:101F00009A83AB83BC8369817A818B819C8120E039
:101F100030E04AE754E40E941F02DC01CB01BC011F
:101F2000CD010E944900DC01CB019093A401809374
:101F3000A3018091A3019091A4010E94DA080F905F
:101F40000F900F900F900F90CF91DF910895DF9336
:101F5000CF93CDB7DEB780E090E00E94DA08CF9152
:101F6000DF910895DF93CF93CDB7DEB78091A301C2
:101F70009091A401CF91DF910895DF93CF93CDB7D6
:101F8000DEB72F970FB6F894DEBF0FBECDBF8F8799
:101F900083E060E041E00E94B20C83E061E040E059
:101FA0000E94B20C82E06F850E948B0E83E062E09B
:101FB00041E00E94B20C80E090E0A0E0B0E48B87AA
:101FC0009C87AD87BE876B857C858D859E8520E04F
:101FD00030E04AEF54E40E941F02DC01CB018F8302
:101FE0009887A987BA876F81788589859A8520E047
:101FF00030E040E85FE30E94790388232CF481E01D
:1020000090E09E838D833FC06F81788589859A8516
:1020100020E03FEF4FE757E40E94190318164CF5F4
:102020006B857C858D859E8520E030E040E251E423
:102030000E941F02DC01CB01BC01CD010E944900BE
:10204000DC01CB019E838D830FC088EC90E09C83E4
:102050008B838B819C810197F1F79C838B838D818E
:102060009E8101979E838D838D819E81009769F764
:1020700014C06F81788589859A850E944900DC01AA
:10208000CB019E838D838D819E819A8389838981F3
:102090009A810197F1F79A83898383E062E040E0B7
:1020A0000E94B20C2F960FB6F894DEBF0FBECDBFC4
:1020B000CF91DF910895DF93CF93CDB7DEB76097CF
:1020C0000FB6F894DEBF0FBECDBF888B83E060E013
:1020D00040E00E94B20C83E061E040E00E94B20C5C
:1020E0001F8617C08889282F30E08F85882F90E0C1
:1020F000A90102C0559547958A95E2F7CA01982F24
:10210000917082E06F85492F0E94B20C8F858F5F9E
:102110008F878F85883030F383E062E041E00E9452
:10212000B20C80E090E0A0E0B0E48B879C87AD87A4
:10213000BE876B857C858D859E8520E030E04AEFEB
:1021400054E40E941F02DC01CB018F839887A9878A
:10215000BA876F81788589859A8520E030E040E8EC
:102160005FE30E94790388232CF481E090E09E8352
:102170008D833FC06F81788589859A8520E03FEF08
:102180004FE757E40E94190318164CF56B857C85C0
:102190008D859E8520E030E040E251E40E941F02E0
:1021A000DC01CB01BC01CD010E944900DC01CB0167
:1021B0009E838D830FC088EC90E09C838B838B8102
:1021C0009C810197F1F79C838B838D819E81019780
:1021D0009E838D838D819E81009769F714C06F81E6
:1021E000788589859A850E944900DC01CB019E8310
:1021F0008D838D819E819A83898389819A810197BC
:10220000F1F79A83898383E062E040E00E94B20C98
:1022100060960FB6F894DEBF0FBECDBFCF91DF91B1
:102220000895DF93CF93CDB7DEB72E970FB6F8940E
:10223000DEBF0FBECDBF82E061E10E94410E83E0B0
:1022400060E041E00E949C0B83E061E041E00E947D
:102250009C0B83E062E041E00E949C0B80E090E0F8
:10226000A0E2B2E48B879C87AD87BE876B857C85B7
:102270008D859E8520E030E04AEF54E40E941F02E5
:10228000DC01CB018F839887A987BA876F81788516
:1022900089859A8520E030E040E85FE30E94790379
:1022A00088232CF481E090E09E838D833FC06F8172
:1022B000788589859A8520E03FEF4FE757E40E94B3
:1022C000190318164CF56B857C858D859E8520E05D
:1022D00030E040E251E40E941F02DC01CB01BC016E
:1022E000CD010E944900DC01CB019E838D830FC08C
:1022F00088EC90E09C838B838B819C810197F1F724
:102300009C838B838D819E8101979E838D838D819C
:102310009E81009769F714C06F81788589859A85B9
:102320000E944900DC01CB019E838D838D819E81BB
:102330009A83898389819A810197F1F79A838983A6
:1023400088E30E945B108CE00E945B1081E00E9499
:102350005B102E960FB6F894DEBF0FBECDBFCF91A7
:10236000DF910895DF93CF93CDB7DEB781E00E9470
:102370005B10CF91DF910895DF93CF9300D00F9240
:10238000CDB7DEB78A836B8319828A81882319F4DB
:102390008B81898303C08B81805C8983898180687C
:1023A000898389810E945B100F900F900F90CF91CD
:1023B000DF910895DF93CF9300D00F92CDB7DEB7B2
:1023C0009B838A8319820EC08981282F30E08A81FD
:1023D0009B81FC01E20FF31F80810E94BD0F898168
:1023E0008F5F89838981282F30E08A819B81FC015E
:1023F000E20FF31F8081882339F70F900F900F9021
:10240000CF91DF910895DF93CF93CDB7DEB72E97AD
:102410000FB6F894DEBF0FBECDBF6B877C878D876C
:102420009E878B859C859E012F5F3F4FB9014AE0B7
:1024300050E00E94F113CE0101960E94DA112E960F
:102440000FB6F894DEBF0FBECDBFCF91DF910895D8
:10245000DF93CF9300D0CDB7DEB789836A838981BC
:102460008093A5018A818093A6018A8160E041E082
:102470000E949C0B8A8161E041E00E949C0B8A8152
:1024800062E041E00E949C0B8A8163E041E00E948F
:102490009C0B8A8160E041E00E94B20C8A8161E07D
:1024A00041E00E94B20C8A8162E041E00E94B20CDD
:1024B0008A8163E041E00E94B20C898164E040E0DF
:1024C0000E949C0B898165E040E00E949C0B898101
:1024D00066E040E00E949C0B898167E040E00E943A
:1024E0009C0B898164E041E00E94B20C898165E027
:1024F00041E00E94B20C898166E041E00E94B20C8A
:10250000898167E041E00E94B20C0F900F90CF915B
:10251000DF910895DF93CF93CDB7DEB7A2970FB6C3
:10252000F894DEBF0FBECDBF8FEF8C831D8281E09C
:102530008E8382E08F8383E0888784E0898785E0CB
:102540008A8786E08B8787E08C87CE010D969F8FE8
:102550008E8FE7E8F1E0F9A3E8A3F0E1FAA3E8A1A0
:10256000F9A1008088A199A1019699A388A3EE8D75
:10257000FF8D00828E8D9F8D01969F8F8E8F9AA1E9
:1025800091509AA3EAA1EE2351F71B826AC04091B1
:10259000A6018B81282F30E0CE010596FC01E20FC9
:1025A000F31F9081842F692F40E00E94B20C1A82A1
:1025B00041C04091A5018A81282F30E0CE010996C3
:1025C000FC01E20FF31F9081842F692F0E94C80D38
:1025D00089838981882359F58A81282F30E08B816E
:1025E000482F50E0220F331F220F331FCE010196D8
:1025F000820F931F840F951FFC013C9680818C8372
:1026000010C04091A5018A81282F30E0CE010996A3
:10261000FC01E20FF31F9081842F692F0E94C80DE7
:1026200089838981882369F3FC81FD8F20C08A8199
:102630008F5F8A838A81843008F4BBCF4091A601E2
:102640008B81282F30E0CE010596FC01E20FF31FAD
:102650009081842F692F41E00E94B20C8B818F5FA3
:102660008B838B81843008F492CF8C818D8F8D8DFC
:10267000A2960FB6F894DEBF0FBECDBFCF91DF910B
:102680000895DF93CF9300D0CDB7DEB70E9411112C
:1026900080E060E00E9428120E94420F83E065E023
:1026A00041E00E949C0B8FEF8A83198280E690E0C4
:1026B0000E94DA110E948A128A838A818F3FD1F3A5
:1026C0008A81863251F40E94B21180E690E00E9425
:1026D000DA110E94A70F1982EDCF8A818D33A9F4F8
:1026E00081E060E00E94BC1187E690E00E94DA1170
:1026F00089810E94510F0E94B20FCC01A0E0B0E08E
:10270000BC01CD010E940312D5CF8A818F3249F0DE
:102710008A818A3231F08A818D3219F08A818B3236
:1027200039F40E94B2118FE690E00E94DA11C2CF14
:102730008981882F90E09C01220F331FC901880FE7
:10274000991F880F991F820F931F982F8A81890FD5
:1027500089838A81805D0E94BD0FACCF991B79E08F
:1027600004C0991F961708F0961B881F7A95C9F721
:10277000809508952F923F924F925F926F927F9231
:102780008F929F92AF92BF92CF92DF92EF92FF9281
:102790000F931F93CF93DF93CDB7DEB7CA1BDB0B2D
:1027A0000FB6F894DEBF0FBECDBF09942A883988D2
:1027B00048885F846E847D848C849B84AA84B984D9
:1027C000C884DF80EE80FD800C811B81AA81B981E5
:1027D000CE0FD11D0FB6F894DEBF0FBECDBFED01F9
:1027E0000895FB019F01E8944230C4F04532B4F4EF
:1027F0004A3029F497FB1EF4909581959F4F642FE2
:1028000077270E942214805D8A330CF0895D8193C2
:10281000CB010097A1F716F45DE251931082C90134
:102820000C941214DC01FC01672F71917723E1F7FE
:10283000329704C07C916D9370836291AE17BF078D
:10284000C8F30895AA1BBB1B51E107C0AA1FBB1FF9
:10285000A617B70710F0A61BB70B881F991F5A952C
:10286000A9F780959095BC01CD010895F894FFCF0C
:102870004465673A2020005469636B733A2000492D
:102880006E636F727265637420496E7075740000B8
:102890000000000000000000010202030303030423
:1028A00004040404040404050505050505050505DF
:1028B00005050505050505060606060606060606BF
:1028C00006060606060606060606060606060606A8
:1028D000060606060606060707070707070707078F
:1028E0000707070707070707070707070707070778
:1028F0000707070707070707070707070707070768
:102900000707070707070707070707070707070757
:10291000070707070707070808080808080808083E
:102920000808080808080808080808080808080827
:102930000808080808080808080808080808080817
:102940000808080808080808080808080808080807
:1029500008080808080808080808080808080808F7
:1029600008080808080808080808080808080808E7
:1029700008080808080808080808080808080808D7
:1029800008080808080808080808080808080808C7
:10299000080808080808080708092F0405062A017E
:0829A00002032D26003D2B006F
:00000001FF
