:100000000C942A000C9447000C9447000C94470071
:100010000C9447000C9447000C9447000C94470044
:100020000C9447000C9447000C9447000C94470034
:100030000C9447000C9447000C9447000C94470024
:100040000C9447000C9447000C9447000C94470014
:100050000C94470011241FBECFE5D8E0DEBFCDBF12
:1000600011E0A0E6B0E0E4E6F3E202C005900D92F4
:10007000A839B107D9F711E0A8E9B1E001C01D9294
:10008000AB39B107E1F70E94250E0C94B0110C9426
:100090000000EF92FF920F931F937B018C0120E0F1
:1000A00030E040E05FE40E94490388238CF0C801FF
:1000B000B70120E030E040E05FE40E94C1010E940F
:1000C00007049B01AC01205030404040504806C01E
:1000D000C801B7010E9407049B01AC01B901CA0124
:1000E0001F910F91FF90EF900895A0E0B0E0EBE733
:1000F000F0E00C943411DC012B01FA019C91923058
:1001000008F439C1EB018881823008F433C194309E
:1001100069F4843009F02FC111969C91119789815F
:10012000981709F428C1ADE6B0E025C1843009F480
:1001300021C18230A9F4923009F01DC19A01AD01AC
:1001400088E0EA010990AE01E90109929E0181501F
:10015000C1F7E201898111969C918923818308C1AD
:10016000923009F407C112962D903C901397EB0141
:100170008A819B811496AD90BD90CD90DC901797AD
:10018000EC80FD800E811F819101281B390BB90184
:1001900037FF04C066277727621B730B6032710537
:1001A0000CF061C0121613066CF537014801062EDB
:1001B00004C096948794779467940A94D2F721E0C8
:1001C00030E040E050E004C0220F331F441F551FB1
:1001D0006A95D2F721503040404050402E213F21B7
:1001E00040235123211531054105510521F021E01E
:1001F00030E040E050E079018A01E628F72808293C
:1002000019293CC0232BD1F1260E371E350146019A
:10021000062E04C096948794779467940A94D2F734
:1002200021E030E040E050E004C0220F331F441FC3
:10023000551F6A95D2F721503040404050402A2146
:100240003B214C215D21211531054105510521F04E
:1002500021E030E040E050E059016A01A628B728CB
:10026000C828D9280BC0821593052CF01C01AA249C
:10027000BB24650103C0EE24FF24870111969C91E5
:10028000D20111968C91981709F445C0992339F041
:10029000A80197012A193B094C095D0906C0A6016E
:1002A00095012E193F09400B510B57FD08C01182D3
:1002B0003382228224833583468357831DC081E0A5
:1002C00081833382228288279927DC01821B930B4A
:1002D000A40BB50B84839583A683B7830DC0220F2F
:1002E000331F441F551F24833583468357838281E0
:1002F000938101979383828324813581468157813D
:10030000DA01C9010197A109B1098F5F9F4FAF4F72
:10031000BF4328F30BC0918333822282EA0CFB1C7B
:100320000C1D1D1DE482F5820683178383E0808304
:10033000248135814681578157FF1AC0C901AA27F8
:1003400097FDA095BA2F81709070A070B0705695EF
:10035000479537952795822B932BA42BB52B848318
:100360009583A683B7838281938101969383828349
:10037000DF0101C0D201CD01CDB7DEB7E2E10C94BF
:100380005011A0E2B0E0E7ECF1E00C944011698379
:100390007A838B839C832D833E834F835887E9E048
:1003A000EE2EF12CEC0EFD1ECE010196B7010E943F
:1003B0007F058E010F5E1F4FCE010596B8010E948A
:1003C0007F058A8991E089278A8BC701B801AE0130
:1003D000475E5F4F0E9475000E94AA04A096E6E067
:1003E0000C945C11A0E2B0E0E8EFF1E00C94401155
:1003F00069837A838B839C832D833E834F835887C5
:10040000F9E0EF2EF12CEC0EFD1ECE010196B701A6
:100410000E947F058E010F5E1F4FCE010596B80129
:100420000E947F05C701B801AE01475E5F4F0E9481
:1004300075000E94AA04A096E6E00C945C11A0E26C
:10044000B0E0E5E2F2E00C94341169837A838B83A7
:100450009C832D833E834F835887CE010196BE0136
:10046000675F7F4F0E947F05CE010596BE016F5EDC
:100470007F4F0E947F059985923088F0898982306C
:10048000C8F0943019F4823051F404C0843029F457
:10049000923081F48DE690E0C6C0923049F420E0BD
:1004A0009A858A89981321E02A87CE010996BBC0D4
:1004B000823049F420E09A858A89981321E02A8BBA
:1004C000CE014196B0C02D843E844F8458886D88FB
:1004D0007E888F88988CEE24FF248701AA24BB2471
:1004E000650140E050E060E070E0E0E0F0E0C10174
:1004F00081709070892BE9F0E60CF71C081D191D1E
:100500009A01AB012A0D3B1D4C1D5D1D80E090E062
:10051000A0E0B0E0E614F7040805190520F481E036
:1005200090E0A0E0B0E0BA01A901480F591F6A1F8E
:100530007B1FAA0CBB1CCC1CDD1C97FE08C081E0F5
:1005400090E0A0E0B0E0A82AB92ACA2ADB2A3196B6
:10055000E032F10549F0660C771C881C991C569412
:10056000479437942794C3CFFA85EA892B893C892D
:100570008B859C85280F391F2E5F3F4F17C0CA01FE
:1005800081709070892B61F016950795F794E79428
:1005900080E090E0A0E0B0E8E82AF92A0A2B1B2BC3
:1005A00076956795579547952F5F3F4F77FDE7CF36
:1005B0000CC0440F551F661F771F17FD4160EE0CDE
:1005C000FF1C001F111F21503040403090E05907A0
:1005D00090E0690790E4790760F32B8F3C8FDB0193
:1005E000CA018F779070A070B07080349105A1051A
:1005F000B10561F447FD0AC0E114F10401051105DC
:1006000029F0405C5F4F6F4F7F4F40781A8EFE1786
:1006100011F081E08A8F4D8F5E8F6F8F78A383E01A
:10062000898FCE0149960E94AA04A096E2E10C941B
:100630005011A8E1B0E0EFE1F3E00C9440116983C0
:100640007A838B839C832D833E834F83588789E0F5
:10065000E82EF12CEC0EFD1ECE010196B7010E9492
:100660007F058E010F5E1F4FCE010596B8010E94D7
:100670007F058985823040F08989823028F0C70162
:10068000B8010E94F70501C08FEF6896E6E00C9470
:100690005C11A8E1B0E0EFE4F3E00C944011698351
:1006A0007A838B839C832D833E834F83588789E095
:1006B000E82EF12CEC0EFD1ECE010196B7010E9432
:1006C0007F058E010F5E1F4FCE010596B8010E9477
:1006D0007F058985823040F08989823028F0C70102
:1006E000B8010E94F70501C08FEF6896E6E00C9410
:1006F0005C11A8E1B0E0EFE7F3E00C9440116983EE
:100700007A838B839C832D833E834F83588789E034
:10071000E82EF12CEC0EFD1ECE010196B7010E94D1
:100720007F058E010F5E1F4FCE010596B8010E9416
:100730007F058985823040F08989823028F0C701A1
:10074000B8010E94F70501C081E06896E6E00C94CC
:100750005C11A8E0B0E0EFEAF3E00C943D119B01DE
:10076000AC0183E08983DA01C9018827B7FD83954D
:100770009927AA27BB27B82E211531054105510518
:1007800019F482E089833AC08823A9F0203080E000
:10079000380780E0480780E8580729F460E070E0F7
:1007A00080E09FEC30C0EE24FF248701E21AF30AB8
:1007B000040B150B02C079018A018EE1C82ED12CE1
:1007C000DC82CB82ED82FE820F831887C801B701DD
:1007D0000E945B0401971816190684F4082E04C0C1
:1007E000EE0CFF1C001F111F0A94D2F7ED82FE824F
:1007F0000F831887C81AD90ADC82CB82BA82CE014D
:1008000001960E94AA042896E9E00C945911ACE0E4
:10081000B0E0EDE0F4E00C94441169837A838B83BB
:100820009C83CE010196BE016B5F7F4F0E947F05C6
:100830008D81823061F1823050F1843021F48E81DB
:10084000882351F12EC02F81388537FD20C06E815D
:100850002F3131051CF06623F9F023C08EE190E0C2
:10086000821B930B29853A854B855C8504C0569580
:100870004795379527958A95D2F76623B1F050951D
:100880004095309521953F4F4F4F5F4F0EC020E070
:1008900030E040E050E009C02FEF3FEF4FEF5FE75F
:1008A00004C020E030E040E050E8B901CA012C96D5
:1008B000E2E00C946011EF92FF920F931F937B0183
:1008C0008C0180E0E81680E0F80681E0080780E00F
:1008D000180788F48FEFE816F1040105110531F0CF
:1008E00028F088E090E0A0E0B0E017C080E090E061
:1008F000A0E0B0E012C080E0E81680E0F80680E0FA
:10090000080781E0180728F088E190E0A0E0B0E057
:1009100004C080E190E0A0E0B0E020E230E040E000
:1009200050E0281B390B4A0B5B0B04C0169507954A
:10093000F794E7948A95D2F7F701EB58FF4F80813F
:10094000281B310941095109C9011F910F91FF90DD
:10095000EF900895DF92EF92FF920F931F93FC01A7
:10096000E480F58006811781D1808081823048F44F
:1009700080E090E0A0E1B0E0E82AF92A0A2B1B2BE6
:10098000A5C0843009F49FC0823021F4EE24FF24F6
:10099000870105C0E114F1040105110519F4E0E037
:1009A000F0E096C0628173819FEF623879070CF0A6
:1009B0005BC022E83FEF261B370B2A3131052CF0B4
:1009C00020E030E040E050E02AC0B801A701022E4C
:1009D00004C076956795579547950A94D2F781E0BC
:1009E00090E0A0E0B0E004C0880F991FAA1FBB1FD1
:1009F0002A95D2F70197A109B1098E219F21A02341
:100A0000B1230097A105B10521F081E090E0A0E0BD
:100A1000B0E09A01AB01282B392B4A2B5B2BDA0172
:100A2000C9018F779070A070B07080349105A105D6
:100A3000B10539F427FF09C0205C3F4F4F4F5F4F8E
:100A400004C0215C3F4F4F4F5F4FE0E0F0E02030AB
:100A5000A0E03A07A0E04A07A0E45A0710F0E1E05E
:100A6000F0E079018A0127C06038710564F5FB0167
:100A7000E158FF4FD801C7018F779070A070B07018
:100A800080349105A105B10539F4E7FE0DC080E47D
:100A900090E0A0E0B0E004C08FE390E0A0E0B0E020
:100AA000E80EF91E0A1F1B1F17FF05C016950795B4
:100AB000F794E794319687E016950795F794E794B5
:100AC0008A95D1F705C0EE24FF248701EFEFF0E00F
:100AD0006E2F679566276795902F9F77D794DD24B3
:100AE000D7948E2F8695492F462B582F5D29B70115
:100AF000CA011F910F91FF90EF90DF900895FC01C4
:100B0000DB01408151812281622F6F7770E0221FCB
:100B10002227221F9381892F880F822B282F30E0D4
:100B2000991F9927991F11969C93119721153105AB
:100B3000A9F5411551056105710511F482E037C031
:100B400082E89FEF13969C938E9312979A01AB01C4
:100B500067E0220F331F441F551F6A95D1F783E0CA
:100B60008C930DC0220F331F441F551F12968D9179
:100B70009C911397019713969C938E931297203014
:100B800080E0380780E0480780E4580758F314965F
:100B90002D933D934D935C93179708952F3F310507
:100BA00079F4411551056105710519F484E08C93C0
:100BB000089564FF03C081E08C9312C01C9210C0A2
:100BC0002F57304013963C932E93129783E08C93CB
:100BD00087E0440F551F661F771F8A95D1F7706411
:100BE00014964D935D936D937C93179708951F937F
:100BF000DC01FB019C91923008F447C08081823077
:100C000008F443C0943051F411961C91843099F546
:100C10008181682F70E0611B71093FC0843021F031
:100C2000923031F48230B9F18181882389F12DC06D
:100C300011961C9111978230F1F081811817D9F427
:100C400012962D913C91139782819381821793077D
:100C500094F028173907BCF014968D919D910D9052
:100C6000BC91A02D248135814681578128173907F1
:100C70004A075B0718F4112341F00AC08217930753
:100C8000A407B50740F4112319F061E070E005C036
:100C90006FEF7FEF02C060E070E0CB011F9108951D
:100CA000DF93CF93CDB7DEB72D970FB6F894DEBFA5
:100CB0000FBECDBF89836A834B838981282F30E0A3
:100CC0003D872C878C859D858130910509F44FC027
:100CD0002C853D85223031052CF48C859D8500972F
:100CE00071F0EBC02C853D852230310509F477C0C9
:100CF0008C859D858330910509F4A9C0DEC08B8168
:100D0000282F30E03B872A878A859B850097D1F082
:100D10002A853B852130310509F0CFC0AAE3B0E038
:100D2000EAE3F0E08081482F8A81282F30E081E0DB
:100D300090E0022E02C0880F991F0A94E2F7842BDC
:100D40008C93BBC0AAE3B0E0EAE3F0E08081482FD7
:100D50008A81282F30E081E090E0022E02C0880FC7
:100D6000991F0A94E2F7809584238C93A6C08B8107
:100D7000282F30E039872887888599850097D1F01A
:100D8000288539852130310509F097C0A7E3B0E007
:100D9000E7E3F0E08081482F8A81282F30E081E06E
:100DA00090E0022E02C0880F991F0A94E2F7842B6C
:100DB0008C9383C0A7E3B0E0E7E3F0E08081482FA5
:100DC0008A81282F30E081E090E0022E02C0880F57
:100DD000991F0A94E2F7809584238C936EC08B81CF
:100DE000282F30E03F832E838E819F810097D1F0A2
:100DF0002E813F812130310509F05FC0A4E3B0E0CE
:100E0000E4E3F0E08081482F8A81282F30E081E000
:100E100090E0022E02C0880F991F0A94E2F7842BFB
:100E20008C934BC0A4E3B0E0E4E3F0E08081482F72
:100E30008A81282F30E081E090E0022E02C0880FE6
:100E4000991F0A94E2F7809584238C9336C08B8196
:100E5000282F30E03D832C838C819D810097C9F041
:100E60002C813D812130310541F5A1E3B0E0E1E382
:100E7000F0E08081482F8A81282F30E081E090E0E7
:100E8000022E02C0880F991F0A94E2F7842B8C93DC
:100E900014C0A1E3B0E0E1E3F0E08081482F8A8153
:100EA000282F30E081E090E0022E02C0880F991FC9
:100EB0000A94E2F7809584238C932D960FB6F894CC
:100EC000DEBF0FBECDBFCF91DF910895DF93CF93EB
:100ED000CDB7DEB72D970FB6F894DEBF0FBECDBFEE
:100EE00089836A834B838981282F30E03D872C8753
:100EF0008C859D858130910509F44FC02C853D85F9
:100F0000223031052CF48C859D85009771F0EBC063
:100F10002C853D852230310509F477C08C859D856F
:100F20008330910509F4A9C0DEC08B81282F30E001
:100F30003B872A878A859B850097D1F02A853B8548
:100F40002130310509F0CFC0ABE3B0E0EBE3F0E0D6
:100F50008081482F8A81282F30E081E090E0022EA6
:100F600002C0880F991F0A94E2F7842B8C93BBC0B0
:100F7000ABE3B0E0EBE3F0E08081482F8A81282FDB
:100F800030E081E090E0022E02C0880F991F0A94A1
:100F9000E2F7809584238C93A6C08B81282F30E0C4
:100FA00039872887888599850097D1F028853985E4
:100FB0002130310509F097C0A8E3B0E0E8E3F0E0A4
:100FC0008081482F8A81282F30E081E090E0022E36
:100FD00002C0880F991F0A94E2F7842B8C9383C078
:100FE000A8E3B0E0E8E3F0E08081482F8A81282F71
:100FF00030E081E090E0022E02C0880F991F0A9431
:10100000E2F7809584238C936EC08B81282F30E08B
:101010003F832E838E819F810097D1F02E813F8167
:101020002130310509F05FC0A5E3B0E0E5E3F0E071
:101030008081482F8A81282F30E081E090E0022EC5
:1010400002C0880F991F0A94E2F7842B8C934BC03F
:10105000A5E3B0E0E5E3F0E08081482F8A81282F06
:1010600030E081E090E0022E02C0880F991F0A94C0
:10107000E2F7809584238C9336C08B81282F30E053
:101080003D832C838C819D810097C9F02C813D810B
:101090002130310541F5A2E3B0E0E2E3F0E08081E8
:1010A000482F8A81282F30E081E090E0022E02C094
:1010B000880F991F0A94E2F7842B8C9314C0A2E343
:1010C000B0E0E2E3F0E08081482F8A81282F30E011
:1010D00081E090E0022E02C0880F991F0A94E2F787
:1010E000809584238C932D960FB6F894DEBF0FBEA7
:1010F000CDBFCF91DF910895DF93CF9300D000D083
:101100000F92CDB7DEB78A836B838A81282F30E0B8
:101110003D832C834C815D814130510541F18C81AF
:101120009D818230910534F42C813D81211531055A
:1011300061F052C04C815D814230510551F18C818A
:101140009D8183309105B9F147C0E9E3F0E08081EA
:10115000282F30E08B81882F90E0A90102C055959F
:1011600047958A95E2F7CA018170898335C0E6E325
:10117000F0E08081282F30E08B81882F90E0A9015A
:1011800002C0559547958A95E2F7CA018170898317
:1011900023C0E3E3F0E08081282F30E08B81882FAB
:1011A00090E0A90102C0559547958A95E2F7CA01DA
:1011B0008170898311C0E0E3F0E08081282F30E066
:1011C0008B81882F90E0A90102C0559547958A959B
:1011D000E2F7CA018170898389810F900F900F9087
:1011E0000F900F90CF91DF910895DF93CF9300D0B0
:1011F00000D000D0CDB7DEB78B836C831A82198202
:101200008B81282F30E03E832D838D819E8181301C
:101210009105D1F02D813E81223031052CF48D8154
:101220009E81009761F01EC02D813E8122303105E4
:1012300081F08D819E818330910581F013C08AE316
:1012400090E09A8389830EC087E390E09A83898334
:1012500009C084E390E09A83898304C081E390E02D
:101260009A838983E981FA818C81808326960FB6DF
:10127000F894DEBF0FBECDBFCF91DF910895DF930D
:10128000CF9300D000D000D0CDB7DEB78B836C8376
:101290001A8219828B81282F30E03E832D838D8125
:1012A0009E8181309105D1F02D813E812230310522
:1012B0002CF48D819E81009761F01EC02D813E81AE
:1012C0002230310581F08D819E818330910581F03E
:1012D00013C08BE390E09A8389830EC088E390E08B
:1012E0009A83898309C085E390E09A83898304C047
:1012F00082E390E09A838983E981FA818C818083FB
:1013000026960FB6F894DEBF0FBECDBFCF91DF910A
:101310000895DF93CF93CDB7DEB72F970FB6F8942C
:10132000DEBF0FBECDBF8F8781E060E041E00E944D
:10133000660781E061E040E00E94660780E06F851B
:101340000E943F0981E062E041E00E94660780E080
:1013500090E0A0E0B0E48B879C87AD87BE876B856B
:101360007C858D859E8520E030E04AEF54E40E9424
:101370001F02DC01CB018F839887A987BA876F8111
:10138000788589859A8520E030E040E85FE30E9417
:10139000790388232CF481E090E09E838D833FC005
:1013A0006F81788589859A8520E03FEF4FE757E484
:1013B0000E94190318164CF56B857C858D859E85DA
:1013C00020E030E040E251E40E941F02DC01CB014A
:1013D000BC01CD010E944900DC01CB019E838D83BD
:1013E0000FC088EC90E09C838B838B819C8101975C
:1013F000F1F79C838B838D819E8101979E838D83E2
:101400008D819E81009769F714C06F8178858985E9
:101410009A850E944900DC01CB019E838D838D81DA
:101420009E819A83898389819A810197F1F79A83B2
:10143000898381E062E040E00E9466072F960FB644
:10144000F894DEBF0FBECDBFCF91DF910895DF933B
:10145000CF93CDB7DEB760970FB6F894DEBF0FBE5F
:10146000CDBF888B81E060E040E00E94660781E0AC
:1014700061E040E00E9466071F8617C08889282F18
:1014800030E08F85882F90E0A90102C055954795DF
:101490008A95E2F7CA01982F917080E06F85492FF5
:1014A0000E9466078F858F5F8F878F85883030F326
:1014B00081E062E041E00E94660780E090E0A0E009
:1014C000B0E48B879C87AD87BE876B857C858D85D7
:1014D0009E8520E030E04AEF54E40E941F02DC01C8
:1014E000CB018F839887A987BA876F817885898593
:1014F0009A8520E030E040E85FE30E94790388238A
:101500002CF481E090E09E838D833FC06F817885CD
:1015100089859A8520E03FEF4FE757E40E94190341
:1015200018164CF56B857C858D859E8520E030E016
:1015300040E251E40E941F02DC01CB01BC01CD015D
:101540000E944900DC01CB019E838D830FC088EC93
:1015500090E09C838B838B819C810197F1F79C8326
:101560008B838D819E8101979E838D838D819E814A
:10157000009769F714C06F81788589859A850E94E4
:101580004900DC01CB019E838D838D819E819A83EE
:10159000898389819A810197F1F79A83898381E010
:1015A00062E040E00E94660760960FB6F894DEBFE6
:1015B0000FBECDBFCF91DF910895DF93CF93CDB70D
:1015C000DEB72E970FB6F894DEBF0FBECDBF80E01A
:1015D00061E10E94F50881E060E041E00E94500670
:1015E00081E061E041E00E94500681E062E041E07C
:1015F0000E94500680E090E0A0E2B2E48B879C87D6
:10160000AD87BE876B857C858D859E8520E030E02B
:101610004AEF54E40E941F02DC01CB018F839887BC
:10162000A987BA876F81788589859A8520E030E01F
:1016300040E85FE30E94790388232CF481E090E086
:101640009E838D833FC06F81788589859A8520E050
:101650003FEF4FE757E40E94190318164CF56B85CE
:101660007C858D859E8520E030E040E251E40E943B
:101670001F02DC01CB01BC01CD010E944900DC014D
:10168000CB019E838D830FC088EC90E09C838B837D
:101690008B819C810197F1F79C838B838D819E8147
:1016A00001979E838D838D819E81009769F714C079
:1016B0006F81788589859A850E944900DC01CB017C
:1016C0009E838D838D819E819A83898389819A816E
:1016D0000197F1F79A83898388E30E94270A8CE0B7
:1016E0000E94270A81E00E94270A2E960FB6F894DE
:1016F000DEBF0FBECDBFCF91DF910895DF93CF93B3
:10170000CDB7DEB781E00E94270ACF91DF9108951F
:10171000DF93CF9300D00F92CDB7DEB78A836B8370
:1017200019828A81882319F48B81898303C08B8174
:10173000805C898389818068898389810E94270AE6
:101740000F900F900F90CF91DF910895DF93CF937B
:1017500000D00F92CDB7DEB79B838A8319820EC06B
:101760008981282F30E08A819B81FC01E20FF31FE1
:1017700080810E94890989818F5F89838981282FCF
:1017800030E08A819B81FC01E20FF31F8081882376
:1017900039F70F900F900F90CF91DF910895DF935D
:1017A000CF93CDB7DEB72E970FB6F894DEBF0FBE3E
:1017B000CDBF6B877C878D879E878B859C859E019F
:1017C0002F5F3F4FB9014AE050E00E946B11CE01FC
:1017D00001960E94A60B2E960FB6F894DEBF0FBEA0
:1017E000CDBFCF91DF910895DF93CF9300D0CDB7D8
:1017F000DEB789836A838981809398018A81809387
:1018000099018A8160E041E00E9450068A8161E08E
:1018100041E00E9450068A8162E041E00E94500649
:101820008A8163E041E00E9450068A8160E041E0E5
:101830000E9466078A8161E041E00E9466078A8112
:1018400062E041E00E9466078A8163E041E00E9415
:101850006607898164E040E00E945006898165E066
:1018600040E00E945006898166E040E00E945006F8
:10187000898167E040E00E945006898164E041E090
:101880000E946607898165E041E00E9466078981C0
:1018900066E041E00E946607898167E041E00E94BE
:1018A00066070F900F90CF91DF910895DF93CF934C
:1018B000CDB7DEB7A2970FB6F894DEBF0FBECDBF8F
:1018C0008FEF8C831D8281E08E8382E08F8383E0A3
:1018D000888784E0898785E08A8786E08B8787E030
:1018E0008C87CE010D969F8F8E8FEFE7F1E0F9A3E5
:1018F000E8A3F0E1FAA3E8A1F9A1008088A199A1E9
:10190000019699A388A3EE8DFF8D00828E8D9F8D09
:1019100001969F8F8E8F9AA191509AA3EAA1EE23F0
:1019200051F71B826AC0409199018B81282F30E0CA
:10193000CE010596FC01E20FF31F9081842F692FE1
:1019400040E00E9466071A8241C0409198018A8156
:10195000282F30E0CE010996FC01E20FF31F9081A1
:10196000842F692F0E947C0889838981882359F5F7
:101970008A81282F30E08B81482F50E0220F331FBF
:10198000220F331FCE010196820F931F840F951FE4
:10199000FC013C9680818C8310C0409198018A8123
:1019A000282F30E0CE010996FC01E20FF31F908151
:1019B000842F692F0E947C0889838981882369F399
:1019C000FC81FD8F20C08A818F5F8A838A81843069
:1019D00008F4BBCF409199018B81282F30E0CE01D4
:1019E0000596FC01E20FF31F9081842F692F41E0DF
:1019F0000E9466078B818F5F8B838B81843008F414
:101A000092CF8C818D8F8D8DA2960FB6F894DEBF0C
:101A10000FBECDBFCF91DF910895DF93CF93CDB7A8
:101A2000DEB761970FB6F894DEBF0FBECDBF888BCF
:101A3000698B888980939A01888961E10E94F50801
:101A40001F8693C08F85882F90E0FC01EB58FE4FD6
:101A500090818889692F0E943F098989282F30E069
:101A600088EE93E0AC01249FC001259F900D349F28
:101A7000900D1124AA2797FDA095BA2FBC01CD0186
:101A80000E94A903DC01CB018B879C87AD87BE87B1
:101A90006B857C858D859E8520E030E04AEF54E49F
:101AA0000E941F02DC01CB018F839887A987BA8728
:101AB0006F81788589859A8520E030E040E85FE392
:101AC0000E94790388232CF481E090E09E838D832B
:101AD0003FC06F81788589859A8520E03FEF4FE789
:101AE00057E40E94190318164CF56B857C858D858B
:101AF0009E8520E030E040E251E40E941F02DC01BC
:101B0000CB01BC01CD010E944900DC01CB019E83C9
:101B10008D830FC088EC90E09C838B838B819C81AC
:101B20000197F1F79C838B838D819E8101979E8322
:101B30008D838D819E81009769F714C06F817885B0
:101B400089859A850E944900DC01CB019E838D83A3
:101B50008D819E819A83898389819A810197F1F78A
:101B60009A8389838F858F5F8F878F858A3008F46A
:101B700069CF61960FB6F894DEBF0FBECDBFCF918F
:101B8000DF910895DF93CF9300D0CDB7DEB789837F
:101B90006A83898180939A01898161E10E94F508B5
:101BA0008A81882F90E0FC01EB58FE4F908189815B
:101BB000692F0E943F090F900F90CF91DF910895F8
:101BC000DF93CF93CDB7DEB780919A0160E00E949A
:101BD0003F09CF91DF910895DF93CF9300D000D0DC
:101BE00000D0CDB7DEB78B836C8381E090E09A8321
:101BF00089838C818823B9F441E050E05E834D8372
:101C000019C08B81282F30E089819A81AC01429FD5
:101C1000C001439F900D529F900D11249A83898398
:101C20008C8181508C838C81882359F789819A819A
:101C30009E838D838D819E8126960FB6F894DEBF9C
:101C40000FBECDBFCF91DF910895CF92DF92EF927B
:101C5000FF920F931F93DF93CF93CDB7DEB7A39778
:101C60000FB6F894DEBF0FBECDBF82E062E00E94E7
:101C7000F40B0E94DD0A88EC8C8B82E08B8B9E013A
:101C80002B5E3F4F38A32F8F4FE851E05AA349A353
:101C900058E05BA3E9A1FAA1008029A13AA12F5F36
:101CA0003F4F3AA329A3EF8DF8A100822F8D38A1D1
:101CB0002F5F3F4F38A32F8F3BA131503BA34BA148
:101CC000442341F71F86188A198A1A8A1E861D86A0
:101CD0008BE28C870E94560C8B878B858F3FD1F3CC
:101CE0008B858632F9F40E947E0B1E861A8615C0FB
:101CF0008A85882F90E09C01220F331F220F331F0B
:101D0000CE010196820F931FFC01749610821182FE
:101D1000128213828A858F5F8A879A858B899817AA
:101D200038F3D8CF8B858D3309F074C18D85813020
:101D300081F4898D9A8DAB8DBC8DB095A0959095D1
:101D400081959F4FAF4FBF4F898F9A8FAB8FBC8FBD
:101D50001D861986188682E08F830E947E0B8C85F3
:101D6000E82FF0E0FE8FED8F2D8D3E8D2B3231056B
:101D700009F459C04D8D5E8D4C32510534F48D8D72
:101D80009E8D8A32910559F15EC0ED8DFE8DED324A
:101D9000F105C1F12D8D3E8D2F32310509F053C073
:101DA0008D899E89AF89B88D24E630E040E050E00F
:101DB000BC01CD010E94D810DC01CB01298D3A8DE8
:101DC0004B8D5C8DBC01CD010E94F710DA01C90179
:101DD0008F87988BA98BBA8B81E0888734C08D89D7
:101DE0009E89AF89B88D298D3A8D4B8D5C8DBC0154
:101DF000CD010E94D810DC01CB018F87988BA98B75
:101E0000BA8B21C08D899E89AF89B88D298D3A8D75
:101E10004B8D5C8D821B930BA40BB50B8F87988B1E
:101E2000A98BBA8B10C08D899E89AF89B88D298DF9
:101E30003A8D4B8D5C8D820F931FA41FB51F8F872A
:101E4000988BA98BBA8B8F859889A989BA898D8B34
:101E50009E8BAF8BB88F198E1A8E1B8E1C8E1E8692
:101E60008F859889A989BA89BB2394F48F8598892D
:101E7000A989BA89B095A095909581959F4FAF4F4C
:101E8000BF4F8F87988BA98BBA8B8DE20E948909EF
:101E90008F859889A989BA890097A105B10521F490
:101EA00080E30E94890916CF8F859889A989BA890C
:101EB0008B839C83AD83BE8315C08B819C81AD8158
:101EC000BE812AE030E040E050E0BC01CD010E943C
:101ED000F710DA01C9018B839C83AD83BE838985AA
:101EE0008F5F89878B819C81AD81BE810097A10521
:101EF000B10519F78AC08985982F91508AE0692F1A
:101F00000E94EC0D9C0140E050E08F859889A989E2
:101F1000BA89BC01CD010E94F710DA01C9018A8398
:101F20008A81805D0E9489099A8183E0692F0E94DD
:101F3000C20D8A81082F112707FD10958985982FDA
:101F400091508AE0692F0E94EC0DAC01049FC00102
:101F5000059F900D149F900D11249C0140E050E0CE
:101F60008F859889A989BA89821B930BA40BB50B1D
:101F70008F87988BA98BBA8B2EC099858F81981BE0
:101F80008AE0692F0E94EC0D9C0140E050E08F85B3
:101F90009889A989BA89BC01CD010E94F710DA019C
:101FA000C9010097A105B10511F58885813031F48B
:101FB0008985833019F48EE20E9489098F818F5FB1
:101FC0008F8389858150898780E30E94890983E016
:101FD00060E00E94C20D8985282F30E08F81882F14
:101FE00090E0F901E81BF90BCF01992334F68885BD
:101FF000813031F48985833019F48EE20E94890999
:1020000089858150898782E08F838985882309F0BB
:1020100072CF60CE8B858D32B9F58B858C8B8C8998
:102020000E9489098E85882F90E09C01220F331F22
:10203000220F331FCE010196820F931FFC0174966D
:1020400080819181A281B3810097A105B10519F426
:1020500081E08D873FCE8D85813081F48D899E8989
:10206000AF89B88DB095A095909581959F4FAF4F52
:10207000BF4F8D8B9E8BAF8BB88F1D868E858F5FEC
:102080008E878B858C8726CE8B858F3239F08B851A
:102090008A3221F08B858B3209F04AC08B858C8780
:1020A0008B858C8B8C890E9489098D85813081F488
:1020B0008D899E89AF89B88DB095A09590958195B1
:1020C0009F4FAF4FBF4F8D8B9E8BAF8BB88F1D86B1
:1020D0008E858F5F8E878E85282F30E08B89882FA5
:1020E00090E00197821793070CF0F4CD0E947E0BCD
:1020F00080E690E00E94A60B198215C08981882F86
:1021000090E09C01220F331F220F331FCE01019656
:10211000820F931FFC017496108211821282138227
:1021200089818F5F898399818B89981738F3D2CD04
:102130008B85805D8C8B8C890E9489098E85C82E49
:10214000DD248B85E82EFF2400E010E08E85882FAB
:1021500090E09C01220F331F220F331FCE01019606
:10216000820F931FFC01749680819181A281B381BB
:102170002AE030E040E050E0BC01CD010E94D810E0
:10218000DC01CB01B801A701480F591F6A1F7B1F53
:102190009601220F331F220F331FCE010196820FAB
:1021A000931FFC017496408351836283738392CDA5
:1021B000629FD001739FF001829FE00DF11D649F2B
:1021C000E00DF11D929FF00D839FF00D749FF00DB7
:1021D000659FF00D9927729FB00DE11DF91F639F58
:1021E000B00DE11DF91FBD01CF011124089597FB2A
:1021F000092E05260ED057FD04D014D00AD0001C9D
:1022000038F450954095309521953F4F4F4F5F4F93
:102210000895F6F790958095709561957F4F8F4F53
:102220009F4F0895A1E21A2EAA1BBB1BFD010DC0F2
:10223000AA1FBB1FEE1FFF1FA217B307E407F50776
:1022400020F0A21BB30BE40BF50B661F771F881F52
:10225000991F1A9469F760957095809590959B01E8
:10226000AC01BD01CF0108952F923F924F925F9232
:102270006F927F928F929F92AF92BF92CF92DF9296
:10228000EF92FF920F931F93CF93DF93CDB7DEB7FB
:10229000CA1BDB0B0FB6F894DEBF0FBECDBF09948F
:1022A0002A88398848885F846E847D848C849B84E6
:1022B000AA84B984C884DF80EE80FD800C811B81F4
:1022C000AA81B981CE0FD11D0FB6F894DEBF0FBE23
:1022D000CDBFED010895FB019F01E8944230C4F0A9
:1022E0004532B4F44A3029F497FB1EF49095819559
:1022F0009F4F642F77270E949C11805D8A330CF0DA
:10230000895D8193CB010097A1F716F45DE25193AB
:102310001082C9010C948C11DC01FC01672F7191B2
:102320007723E1F7329704C07C916D9370836291BB
:10233000AE17BF07C8F30895AA1BBB1B51E107C026
:10234000AA1FBB1FA617B70710F0A61BB70B881F45
:10235000991F5A95A9F780959095BC01CD010895D4
:04236000F894FFCF1F
:1023640053796E746178204572726F7200000000B8
:10237400000000000000010202030303030404043C
:1023840004040404040505050505050505050505FE
:1023940005050505050606060606060606060606DE
:1023A40006060606060606060606060606060606C9
:1023B40006060606060707070707070707070707AE
:1023C4000707070707070707070707070707070799
:1023D4000707070707070707070707070707070789
:1023E4000707070707070707070707070707070779
:1023F400070707070708080808080808080808085E
:102404000808080808080808080808080808080848
:102414000808080808080808080808080808080838
:102424000808080808080808080808080808080828
:102434000808080808080808080808080808080818
:102444000808080808080808080808080808080808
:1024540008080808080808080808080808080808F8
:1024640008080808080808080808080808080808E8
:1024740008080808083F065B4F666D7D077F6F07F5
:1024840008092F0405062A0102032D26003D2B000E
:08249400000000000000000040
:00000001FF
