:100000000C942A000C946E000C9497000C944700FA
:100010000C9447000C9447000C9447000C94470044
:100020000C9447000C9447000C9447000C94470034
:100030000C9447000C9447000C9447000C94470024
:100040000C9447000C9447000C9447000C94470014
:100050000C94470011241FBECFE5D8E0DEBFCDBF12
:1000600010E0A0E6B0E0E0E7F7E002C005900D92F6
:10007000A037B107D9F710E0A0E7B0E001C01D92AA
:10008000A437B107E1F70E948B030C94B6030C94DC
:1000900000008FB780688FBF08958FB78F778FBFAD
:1000A000089585B7816085BF85B78D7F85BF8BB784
:1000B00080648BBF85B7846085BF85B7877F85BF28
:1000C0008BB780688BBF0895909371008093700008
:1000D0000895909373008093720008951F920F9279
:1000E0000FB60F9211242F933F934F935F936F930B
:1000F0007F938F939F93AF93BF93EF93FF93E09181
:100100007000F0917100309709F00995FF91EF911F
:10011000BF91AF919F918F917F916F915F914F911F
:100120003F912F910F900FBE0F901F9018951F9227
:100130000F920FB60F9211242F933F934F935F931B
:100140006F937F938F939F93AF93BF93EF93FF939F
:10015000E0917200F0917300309709F00995FF91DA
:10016000EF91BF91AF919F918F917F916F915F912F
:100170004F913F912F910F900FBE0F901F901895A8
:10018000813029F1813038F0823009F43CC083306D
:1001900009F06EC053C0442371F0413009F068C0CB
:1001A0002AB381E090E002C0880F991F6A95E2F7B8
:1001B000282B2ABB08952AB381E090E002C0880F63
:1001C000991F6A95E2F7809582238ABB089544239C
:1001D00071F0413009F04CC027B381E090E002C0DB
:1001E000880F991F6A95E2F7282B27BB089527B33C
:1001F00081E090E002C0880F991F6A95E2F7809530
:10020000822387BB0895442369F0413089F524B3E4
:1002100081E090E002C0880F991F6A95E2F7282BD1
:1002200024BB089524B381E090E002C0880F991F99
:100230006A95E2F78095822384BB0895442369F090
:100240004130B1F421B381E090E002C0880F991FE2
:100250006A95E2F7282B21BB089521B381E090E055
:1002600002C0880F991F6A95E2F78095822381BBAF
:100270000895813029F1813038F0823009F43CC092
:10028000833009F06EC053C0442371F0413009F04F
:1002900068C02BB381E090E002C0880F991F6A9577
:1002A000E2F7282B2BBB08952BB381E090E002C02E
:1002B000880F991F6A95E2F7809582238BBB08957A
:1002C000442371F0413009F04CC028B381E090E044
:1002D00002C0880F991F6A95E2F7282B28BB089562
:1002E00028B381E090E002C0880F991F6A95E2F779
:1002F0008095822388BB0895442369F0413089F5B5
:1003000025B381E090E002C0880F991F6A95E2F75B
:10031000282B25BB089525B381E090E002C0880F0B
:10032000991F6A95E2F78095822385BB089544233F
:1003300069F04130B1F422B381E090E002C0880F4F
:10034000991F6A95E2F7282B22BB089522B381E01A
:1003500090E002C0880F991F6A95E2F7809582238A
:1003600082BB0895813049F0813028F0823039F025
:100370008330B1F40DC089B303C086B301C083B329
:1003800090E002C0959587956A95E2F7817008958F
:1003900080B390E002C0959587956A95E2F78170E9
:1003A0000895813069F0813028F0823061F0833027
:1003B00021F40CC0EAE3F0E00BC0E0E0F0E008C09C
:1003C000E7E3F0E005C0E4E3F0E002C0E1E3F0E0E1
:1003D00060830895813069F0813028F0823061F0C7
:1003E000833021F40CC0EBE3F0E00BC0E0E0F0E080
:1003F00008C0E8E3F0E005C0E5E3F0E002C0E2E3B6
:10040000F0E00190F081E02D608308950F931F9339
:10041000CF93DF93182F81E060E040E00E94390124
:1004200081E061E040E00E943901C0E0D0E0012FAE
:1004300010E0A8010C2E02C0559547950A94E2F7EA
:10044000417080E06C2F0E9439012196C830D1059F
:1004500081F781E062E041E00E94390180EA9FE09B
:100460000197F1F781E062E040E00E943901DF91FD
:10047000CF911F910F9108958111605C862F806844
:100480000E940602089581E00E940602089580E01D
:1004900061E10E94D10181E060E041E00E94C00082
:1004A00081E061E041E00E94C00081E062E041E063
:1004B0000E94C00080E991E028EC30E0F90131971A
:1004C000F1F70197D9F788E30E9406028CE00E94B9
:1004D000060281E00E94060208950F931F93CF93B6
:1004E000DF93182F81E060E041E00E94390181E054
:1004F00061E040E00E943901C0E0D0E0012F10E04F
:10050000A8010C2E02C0559547950A94E2F7417058
:1005100080E06C2F0E9439012196C830D10581F707
:1005200081E062E041E00E94390180EA9FE00197AA
:10053000F1F781E062E040E00E943901DF91CF9164
:100540001F910F910895CF92DF92EF92FF920F9338
:100550001F93DF93CF93CDB7DEB72F970FB6F894E5
:10056000DEBF0FBECDBFDE011196ECE6F0E083E00A
:1005700001900D928150E1F7DE011496E0E6F0E083
:100580008CE001900D928150E1F700E010E06E01E7
:100590000894C11CD11CF601E00FF11FE08080E03F
:1005A0006E2D40E00E943901E3E0FE2E80E063E022
:1005B0000E94B201882319F420E030E020C074E0EA
:1005C000F72E80E064E00E94B201882319F421E054
:1005D00030E015C065E0F62E80E065E00E94B201D3
:1005E000882319F422E030E00AC080E066E00E942F
:1005F000B2018823B9F423E030E056E0F52EC901BA
:10060000880F991F820F931FFE013196E80FF91F83
:10061000E00FF11F138180E06F2D0E94B20188234B
:10062000D1F30CC080E06E2D41E00E9439010F5FD4
:100630001F4F0330110509F0AECF1AEA812F2F9614
:100640000FB6F894DEBF0FBECDBFCF91DF911F91E3
:100650000F91FF90EF90DF90CF90089580E060E0E1
:1006600041E00E94C00080E061E041E00E94C000E3
:1006700080E062E041E00E94C00080E060E041E094
:100680000E94390180E061E041E00E94390180E090
:1006900062E041E00E94390180E063E040E00E94B6
:1006A000C00080E064E040E00E94C00080E065E0BF
:1006B00040E00E94C00080E066E040E00E94C00090
:1006C00080E063E041E00E94390180E064E041E0C5
:1006D0000E94390180E065E041E00E94390180E03C
:1006E00066E041E00E943901089580E061E00E94E7
:1006F000B20141E0482780E061E00E94390108959D
:1007000080E060E00E94B20141E0482780E060E0C4
:100710000E943901089583E062E040E00E94C00039
:1007200083E062E041E00E94390183E063E040E061
:100730000E94C00083E063E041E00E94390180E054
:1007400060E041E00E94C00080E061E041E00E9482
:10075000C00080E893E00E94640085E793E00E9477
:1007600069000E9449000E945100FFCFF894FFCF1A
:100770000102030405060708090C000D0001020030
:00000001FF
